{"abi":[{"type":"function","name":"createProject","inputs":[{"name":"_title","type":"string","internalType":"string"},{"name":"_description","type":"string","internalType":"string"},{"name":"_bounty","type":"uint256","internalType":"uint256"},{"name":"_feedbackURI","type":"string","internalType":"string"}],"outputs":[],"stateMutability":"nonpayable"},{"type":"function","name":"deposit","inputs":[{"name":"_projectId","type":"uint256","internalType":"uint256"}],"outputs":[],"stateMutability":"payable"},{"type":"function","name":"getProject","inputs":[{"name":"_projectId","type":"uint256","internalType":"uint256"}],"outputs":[{"name":"","type":"tuple","internalType":"struct Flex.Project","components":[{"name":"id","type":"uint256","internalType":"uint256"},{"name":"title","type":"string","internalType":"string"},{"name":"description","type":"string","internalType":"string"},{"name":"bounty","type":"uint256","internalType":"uint256"},{"name":"bountyPool","type":"uint256","internalType":"uint256"},{"name":"feedbackURI","type":"string","internalType":"string"}]}],"stateMutability":"view"},{"type":"function","name":"getProjects","inputs":[],"outputs":[{"name":"","type":"tuple[]","internalType":"struct Flex.Project[]","components":[{"name":"id","type":"uint256","internalType":"uint256"},{"name":"title","type":"string","internalType":"string"},{"name":"description","type":"string","internalType":"string"},{"name":"bounty","type":"uint256","internalType":"uint256"},{"name":"bountyPool","type":"uint256","internalType":"uint256"},{"name":"feedbackURI","type":"string","internalType":"string"}]}],"stateMutability":"view"},{"type":"function","name":"getfeedbackURI","inputs":[{"name":"_projectId","type":"uint256","internalType":"uint256"}],"outputs":[{"name":"","type":"string","internalType":"string"}],"stateMutability":"view"},{"type":"function","name":"projects","inputs":[{"name":"","type":"uint256","internalType":"uint256"}],"outputs":[{"name":"id","type":"uint256","internalType":"uint256"},{"name":"title","type":"string","internalType":"string"},{"name":"description","type":"string","internalType":"string"},{"name":"bounty","type":"uint256","internalType":"uint256"},{"name":"bountyPool","type":"uint256","internalType":"uint256"},{"name":"feedbackURI","type":"string","internalType":"string"}],"stateMutability":"view"},{"type":"function","name":"reward","inputs":[{"name":"_recipient","type":"address","internalType":"address"},{"name":"_projectId","type":"uint256","internalType":"uint256"}],"outputs":[],"stateMutability":"nonpayable"},{"type":"function","name":"updateFeedbackURI","inputs":[{"name":"_projectId","type":"uint256","internalType":"uint256"},{"name":"_feedbackURI","type":"string","internalType":"string"}],"outputs":[],"stateMutability":"nonpayable"}],"bytecode":{"object":"0x6080604052348015600f57600080fd5b506110728061001f6000396000f3fe60806040526004361061007b5760003560e01c8063b6b55f251161004e578063b6b55f251461011d578063c233684614610130578063dcc601281461015d578063f0f3f2c81461017f57600080fd5b8063107046bd1461008057806321670f22146100bb57806346575714146100dd57806370c0fd6c146100fd575b600080fd5b34801561008c57600080fd5b506100a061009b366004610b0c565b6101ac565b6040516100b296959493929190610b6b565b60405180910390f35b3480156100c757600080fd5b506100db6100d6366004610bc3565b61038c565b005b3480156100e957600080fd5b506100db6100f8366004610ca0565b61047a565b34801561010957600080fd5b506100db610118366004610d3e565b610576565b6100db61012b366004610b0c565b6105a7565b34801561013c57600080fd5b5061015061014b366004610b0c565b6105e3565b6040516100b29190610d85565b34801561016957600080fd5b50610172610699565b6040516100b29190610e0e565b34801561018b57600080fd5b5061019f61019a366004610b0c565b6108cc565b6040516100b29190610e73565b600081815481106101bc57600080fd5b600091825260209091206006909102018054600182018054919350906101e190610e86565b80601f016020809104026020016040519081016040528092919081815260200182805461020d90610e86565b801561025a5780601f1061022f5761010080835404028352916020019161025a565b820191906000526020600020905b81548152906001019060200180831161023d57829003601f168201915b50505050509080600201805461026f90610e86565b80601f016020809104026020016040519081016040528092919081815260200182805461029b90610e86565b80156102e85780601f106102bd576101008083540402835291602001916102e8565b820191906000526020600020905b8154815290600101906020018083116102cb57829003601f168201915b50505050509080600301549080600401549080600501805461030990610e86565b80601f016020809104026020016040519081016040528092919081815260200182805461033590610e86565b80156103825780601f1061035757610100808354040283529160200191610382565b820191906000526020600020905b81548152906001019060200180831161036557829003601f168201915b5050505050905086565b6000818154811061039f5761039f610ec0565b90600052602060002090600602016004015460001461047657600081815481106103cb576103cb610ec0565b906000526020600020906006020160030154600082815481106103f0576103f0610ec0565b906000526020600020906006020160040160008282546104109190610eec565b92505081905550816001600160a01b03166108fc6000838154811061043757610437610ec0565b9060005260206000209060060201600301549081150290604051600060405180830381858888f19350505050158015610474573d6000803e3d6000fd5b505b5050565b600061048e83670de0b6b3a7640000610f05565b6040805160c08101825260008054808352602083018a8152938301899052606083018590526080830182905260a08301879052600181018255908052815160069091027f290decd9548b62a8d60345a988386fc84ba6bc95484008f6362f93160ef3e56381019182559251939450909283927f290decd9548b62a8d60345a988386fc84ba6bc95484008f6362f93160ef3e564019061052d9082610f6a565b50604082015160028201906105429082610f6a565b50606082015160038201556080820151600482015560a0820151600582019061056b9082610f6a565b505050505050505050565b806000838154811061058a5761058a610ec0565b906000526020600020906006020160050190816104749190610f6a565b34600082815481106105bb576105bb610ec0565b906000526020600020906006020160040160008282546105db9190611029565b909155505050565b6060600082815481106105f8576105f8610ec0565b9060005260206000209060060201600501805461061490610e86565b80601f016020809104026020016040519081016040528092919081815260200182805461064090610e86565b801561068d5780601f106106625761010080835404028352916020019161068d565b820191906000526020600020905b81548152906001019060200180831161067057829003601f168201915b50505050509050919050565b60606000805480602002602001604051908101604052809291908181526020016000905b828210156108c357838290600052602060002090600602016040518060c0016040529081600082015481526020016001820180546106fa90610e86565b80601f016020809104026020016040519081016040528092919081815260200182805461072690610e86565b80156107735780601f1061074857610100808354040283529160200191610773565b820191906000526020600020905b81548152906001019060200180831161075657829003601f168201915b5050505050815260200160028201805461078c90610e86565b80601f01602080910402602001604051908101604052809291908181526020018280546107b890610e86565b80156108055780601f106107da57610100808354040283529160200191610805565b820191906000526020600020905b8154815290600101906020018083116107e857829003601f168201915b50505050508152602001600382015481526020016004820154815260200160058201805461083290610e86565b80601f016020809104026020016040519081016040528092919081815260200182805461085e90610e86565b80156108ab5780601f10610880576101008083540402835291602001916108ab565b820191906000526020600020905b81548152906001019060200180831161088e57829003601f168201915b505050505081525050815260200190600101906106bd565b50505050905090565b6109056040518060c001604052806000815260200160608152602001606081526020016000815260200160008152602001606081525090565b6000828154811061091857610918610ec0565b90600052602060002090600602016040518060c00160405290816000820154815260200160018201805461094b90610e86565b80601f016020809104026020016040519081016040528092919081815260200182805461097790610e86565b80156109c45780601f10610999576101008083540402835291602001916109c4565b820191906000526020600020905b8154815290600101906020018083116109a757829003601f168201915b505050505081526020016002820180546109dd90610e86565b80601f0160208091040260200160405190810160405280929190818152602001828054610a0990610e86565b8015610a565780601f10610a2b57610100808354040283529160200191610a56565b820191906000526020600020905b815481529060010190602001808311610a3957829003601f168201915b505050505081526020016003820154815260200160048201548152602001600582018054610a8390610e86565b80601f0160208091040260200160405190810160405280929190818152602001828054610aaf90610e86565b8015610afc5780601f10610ad157610100808354040283529160200191610afc565b820191906000526020600020905b815481529060010190602001808311610adf57829003601f168201915b5050505050815250509050919050565b600060208284031215610b1e57600080fd5b5035919050565b6000815180845260005b81811015610b4b57602081850181015186830182015201610b2f565b506000602082860101526020601f19601f83011685010191505092915050565b86815260c060208201526000610b8460c0830188610b25565b8281036040840152610b968188610b25565b905085606084015284608084015282810360a0840152610bb68185610b25565b9998505050505050505050565b60008060408385031215610bd657600080fd5b82356001600160a01b0381168114610bed57600080fd5b946020939093013593505050565b634e487b7160e01b600052604160045260246000fd5b600082601f830112610c2257600080fd5b813567ffffffffffffffff811115610c3c57610c3c610bfb565b604051601f8201601f19908116603f0116810167ffffffffffffffff81118282101715610c6b57610c6b610bfb565b604052818152838201602001851015610c8357600080fd5b816020850160208301376000918101602001919091529392505050565b60008060008060808587031215610cb657600080fd5b843567ffffffffffffffff811115610ccd57600080fd5b610cd987828801610c11565b945050602085013567ffffffffffffffff811115610cf657600080fd5b610d0287828801610c11565b93505060408501359150606085013567ffffffffffffffff811115610d2657600080fd5b610d3287828801610c11565b91505092959194509250565b60008060408385031215610d5157600080fd5b82359150602083013567ffffffffffffffff811115610d6f57600080fd5b610d7b85828601610c11565b9150509250929050565b602081526000610d986020830184610b25565b9392505050565b805182526000602082015160c06020850152610dbe60c0850182610b25565b905060408301518482036040860152610dd78282610b25565b915050606083015160608501526080830151608085015260a083015184820360a0860152610e058282610b25565b95945050505050565b6000602082016020835280845180835260408501915060408160051b86010192506020860160005b82811015610e6757603f19878603018452610e52858351610d9f565b94506020938401939190910190600101610e36565b50929695505050505050565b602081526000610d986020830184610d9f565b600181811c90821680610e9a57607f821691505b602082108103610eba57634e487b7160e01b600052602260045260246000fd5b50919050565b634e487b7160e01b600052603260045260246000fd5b634e487b7160e01b600052601160045260246000fd5b81810381811115610eff57610eff610ed6565b92915050565b8082028115828204841417610eff57610eff610ed6565b601f82111561047457806000526020600020601f840160051c81016020851015610f435750805b601f840160051c820191505b81811015610f635760008155600101610f4f565b5050505050565b815167ffffffffffffffff811115610f8457610f84610bfb565b610f9881610f928454610e86565b84610f1c565b6020601f821160018114610fcc5760008315610fb45750848201515b600019600385901b1c1916600184901b178455610f63565b600084815260208120601f198516915b82811015610ffc5787850151825560209485019460019092019101610fdc565b508482101561101a5786840151600019600387901b60f8161c191681555b50505050600190811b01905550565b80820180821115610eff57610eff610ed656fea2646970667358221220388df5e30fe793234696588a1acd84ddeaea28a540ef96825c66644ed9b7cfc364736f6c634300081a0033","linkReferences":{}},"methodIdentifiers":{"createProject(string,string,uint256,string)":"46575714","deposit(uint256)":"b6b55f25","getProject(uint256)":"f0f3f2c8","getProjects()":"dcc60128","getfeedbackURI(uint256)":"c2336846","projects(uint256)":"107046bd","reward(address,uint256)":"21670f22","updateFeedbackURI(uint256,string)":"70c0fd6c"},"id":0}